:08000000803102288731FD2F39
:100DC20038302100990098012200960123008D01FC
:100DD20021008D0122008D018631FF2686311130DE
:100DE200F3003C30F200CB30890BF52EF20BF52EDE
:100DF200F30BF52E0000ED2E803102280130220087
:100E02008D000730F1001730F0006A30890B072F90
:100E1200F00B072FF10B072F0032023022008D005A
:100E22000730F1001730F0006A30890B162FF00BF3
:100E3200162FF10B162F0032043022008D000730DE
:100E4200F1001730F0006A30890B252FF00B252FA7
:100E5200F10B252F0032083022008D000730F100FF
:100E62001730F0006A30890B342FF00B342FF10B5E
:100E7200342F0032103022008D000730F10017307D
:100E8200F0006A30890B432FF00B432FF10B432FF5
:100E92000032203022008D000730F1001730F000C0
:100EA2006A30890B522FF00B522FF10B522F003266
:100EB200403022008D000730F1001730F0006A3018
:100EC200890B612FF00B612FF10B612F0032803003
:100ED20022008D000730F1001730F0006A30890BD4
:100EE200702FF00B702FF10B702F003222008D014A
:100EF2000930F1001E30F000E430890B7E2FF00B38
:100F02007E2FF10B7E2F0032803022008D000730C1
:100F1200F1001730F0006A30890B8D2FF00B8D2F06
:100F2200F10B8D2F0032403022008D000730F1008E
:100F32001730F0006A30890B9C2FF00B9C2FF10BBD
:100F42009C2F0032203022008D000730F100173034
:100F5200F0006A30890BAB2FF00BAB2FF10BAB2FEC
:100F62000032103022008D000730F1001730F000FF
:100F72006A30890BBA2FF00BBA2FF10BBA2F00325D
:100F8200083022008D000730F1001730F0006A307F
:100F9200890BC92FF00BC92FF10BC92F0032043076
:100FA20022008D000730F1001730F0006A30890B03
:100FB200D82FF00BD82FF10BD82F0032023022009D
:100FC2008D000730F1001730F0006A30890BE72FEF
:100FD200F00BE72FF10BE72F0032013022008D00DA
:100FE2000530F1003930F0008030890BF62FF00B1C
:0E0FF200F62FF10BF62F080020008631E12EBD
:020000040001F9
:04000E00E23FFF3E90
:00000001FF
