:08000000803102288731FD2F39
:10092400CC3022008F000B30F1002630F0005E3016
:10093400890B9A2CF00B9A2CF10B9A2C3330220051
:100944008F000B30F1002630F0005E30890BA82CAC
:10095400F00BA82CF10BA82C0800383021009900CA
:1009640098012200960123008F0121008F01843118
:10097400922484310B30F3002630F2005E30890B70
:10098400C12CF20BC12CF30BC12C8431DB24843138
:100994000B30F3002630F2005E30890BCF2CF20BC3
:1009A400CF2CF30BCF2C86316C268431B92C8031BB
:1009B40002282000A001A101803022008F00023013
:1009C400F100D430F0008530890BE62CF00BE62CD6
:1009D400F10BE62C00007F3022008F000130200054
:1009E400A0070030A13D2108803AF0008030700259
:1009F400031DFE2C06302002031C012D022DDE2CCB
:100A04000630F1001330F000AE30890B072DF00BE7
:100A1400072DF10B072D2000A201A3014030220075
:100A24008F000230F100D430F0008530890B182D8E
:100A3400F00B182DF10B182D0000BF3022008F0091
:100A440001302000A2070030A33D2308803AF000C3
:100A540080307002031D302D06302202031C332D1A
:100A6400342D102D0630F1001330F000AE30890B18
:100A7400392DF00B392DF10B392D2000A401A501DE
:100A8400203022008F000230F100D430F000853095
:100A9400890B4A2DF00B4A2DF10B4A2D0000DF3053
:100AA40022008F0001302000A4070030A53D250856
:100AB400803AF00080307002031D622D063024025B
:100AC400031C652D662D422D0630F1001330F00015
:100AD400AE30890B6B2DF00B6B2DF10B6B2D2000C1
:100AE400A601A701103022008F000230F100D4309B
:100AF400F0008530890B7C2DF00B7C2DF10B7C2DC7
:100B04000000EF3022008F0001302000A6070030E3
:100B1400A73D2708803AF00080307002031D942D11
:100B240006302602031C972D982D742D0630F100F3
:100B34001330F000AE30890B9D2DF00B9D2DF10B81
:100B44009D2D2000A801A901083022008F00023049
:100B5400F100D430F0008530890BAE2DF00BAE2DB2
:100B6400F10BAE2D0000F73022008F000130200081
:100B7400A8070030A93D2908803AF00080307002AF
:100B8400031DC62D06302802031CC92DCA2DA62D0F
:100B94000630F1001330F000AE30890BCF2DF00B8E
:100BA400CF2DF10BCF2D2000AA01AB010430220080
:100BB4008F000230F100D430F0008530890BE02D35
:100BC400F00BE02DF10BE02D0000FB3022008F0034
:100BD40001302000AA070030AB3D2B08803AF0001A
:100BE40080307002031DF82D06302A02031CFB2DF1
:100BF400FC2DD82D0630F1001330F000AE30890BF7
:100C0400012EF00B012EF10B012E2000AC01AD01E1
:100C1400023022008F000230F100D430F000853021
:100C2400890B122EF00B122EF10B122E0000FD3048
:100C340022008F0001302000AC070030AD3D2D08AC
:100C4400803AF00080307002031D2A2E06302C02F8
:100C5400031C2D2E2E2E0A2E0630F1001330F00028
:100C6400AE30890B332EF00B332EF10B332E2000D4
:100C7400AE01AF01013022008F000230F100D43008
:100C8400F0008530890B442EF00B442EF10B442EDA
:100C94000000FE3022008F0001302000AE0700303B
:100CA400AF3D2F08803AF00080307002031D5C2EA7
:100CB40006302E02031C5F2E602E3C2E0630F100FF
:100CC4001330F000AE30890B652EF00B652EF10B5E
:100CD400652E08002000A001A101803022008F00B1
:100CE4000330F1000830F0007730890B772EF00BD9
:100CF400772EF10B772E000022008F010330F100D4
:100D04000830F0007730890B852EF00B852EF10B1F
:100D1400852E000001302000A0070030A13D2108ED
:100D2400803AF00080307002031D9A2E04302002B5
:100D3400031C9D2E9E2E6F2E2000A201A301403085
:100D440022008F000330F1000830F0007730890B67
:100D5400A92EF00BA92EF10BA92E000022008F0161
:100D64000330F1000830F0007730890BB72EF00B18
:100D7400B72EF10BB72E000001302000A20700307F
:100D8400A33D2308803AF00080307002031DCC2E6E
:100D940004302202031CCF2ED02EA12E2000A40149
:100DA400A501203022008F000330F1000830F0004C
:100DB4007730890BDB2EF00BDB2EF10BDB2E0000E2
:100DC40022008F010330F1000830F0007730890BE6
:100DD400E92EF00BE92EF10BE92E00000130200082
:100DE400A4070030A53D2508803AF0008030700249
:100DF400031DFE2E04302402031C012F022FD32EC8
:100E04002000A601A701103022008F000330F1005A
:100E14000830F0007730890B0D2FF00B0D2FF10BFC
:100E24000D2F000022008F010330F1000830F00084
:100E34007730890B1B2FF00B1B2FF10B1B2F00009E
:100E440001302000A6070030A73D2708803AF000B3
:100E540080307002031D302F04302602031C332F10
:100E6400342F052F2000A801A901083022008F008B
:100E74000330F1000830F0007730890B3F2FF00B7E
:100E84003F2FF10B3F2F000022008F010330F100B0
:100E94000830F0007730890B4D2FF00B4D2FF10BFC
:100EA4004D2F000001302000A8070030A93D29087B
:100EB400803AF00080307002031D622F0430280253
:100EC400031C652F662F372F2000AA01AB010430C5
:100ED40022008F000330F1000830F0007730890BD6
:100EE400712FF00B712FF10B712F000022008F0175
:100EF4000330F1000830F0007730890B7F2FF00BBE
:100F04007F2FF10B7F2F000001302000AA07003053
:100F1400AB3D2B08803AF00080307002031D942F03
:100F240004302A02031C972F982F692F2000AC014C
:100F3400AD01023022008F000330F1000830F000D0
:100F44007730890BA32FF00BA32FF10BA32F0000F5
:100F540022008F010330F1000830F0007730890B54
:100F6400B12FF00BB12FF10BB12F00000130200095
:100F7400AC070030AD3D2D08803AF000803070029F
:100F8400031DC62F04302C02031CC92FCA2F9B2F0C
:100F94002000AE01AF01013022008F000330F100C8
:100FA4000830F0007730890BD52FF00BD52FF10BDB
:100FB400D52F000022008F010330F1000830F0002B
:100FC4007730890BE32FF00BE32FF10BE32F0000B5
:100FD40001302000AE070030AF3D2F08803AF0000A
:100FE40080307002031DF82F04302E02031CFB2FE7
:0C0FF400FC2FCD2F080020008431AF2C12
:020000040001F9
:04000E00E23FFF3E90
:00000001FF
