:08000000803102288731FC2F3A
:100EFE0038302100990098012200960123008D01BF
:100F0E0021008D0122008D018731CE2787310530DA
:100F1E00F5000F30F400F130890B932FF40B932F63
:100F2E00F50B932F00000730F6008731A22787318B
:100F3E008B2F80310228F201F3010130F000760A86
:100F4E00A92FF035890BA82F700820008D000330D3
:100F5E00F1000830F0007730890BB32FF00BB32F70
:100F6E00F10BB32F00000130F6020130F207003012
:100F7E00F33D7308803AF00080307002031DC92FD4
:100F8E0008307202031CCC2FCD2FA42F0800F201C3
:100F9E00F3010130F000760AD52FF035890BD42FEE
:100FAE00700820008D000330F1000830F00077301B
:100FBE00890BDF2FF00BDF2FF10BDF2F000001303D
:100FCE00F0007008F6070130F2070030F33D7308A9
:100FDE00803AF00080307002031DF72F0830720245
:100FEE00031CFA2FFB2FD02F0800F60120008731AB
:020FFE007F2F43
:020000040001F9
:04000E00E23FFF3E90
:00000001FF
